:4000000000800020110000009D0900009D09000008B5044B1A6803F53F5302331A6000F0C5FC00BFFA46004010B5054C237833B9044B13B10448AFF300800123237010BD6A
:400040005081FF1F00000000D83A0000084B10B51BB108490848AFF300800848036803B910BD074B002BFBD0BDE81040184700BF000000005481FF1FD83A0000C880FF1FCE
:4000800000000000F8B5244B1B7813F0FF0F08D000253DE0214AD15C214AD15401339BB200E00023B3F5805FF4D9F8BD2B1B13D5194A02EB8402576803F580530133174A8E
:4000C000D05C03F0DFFA394603F030FB0146304603F024FA06460FE00F4A02EB840257680E4AD05C03F0CEFA394603F01FFB0146304603F013FA0646013401E000240026A3
:40010000142CD3DD304603F087FC054B58550135B5F5805FF2DDF8BD6C81FF1FD881FF1FE891FF1F000000002DE9F047944B1868014603F0F3F9934903F0ACFB0546924B1A
:4001400093F85430DBB2012B00F0A180002B49D0022B00F0A180BDE8F0870A2C0ED1284602F070FE7CA3D3E9002302F0BFFE864E06EB840603F07CF9706031E0284602F080
:4001800061FE77A3D3E9002302F0B0FE80468946A4F10A0002F044FE06460F4602460B464046494602F0A2FE01F0AEFB804689466BA3D3E900233046394602F097FE02461E
:4001C0000B464046494602F0BBFF67A3D3E9002302F08CFE6C4E06EB840603F049F97060013400E00024142CB7DDBDE8F0870A2C1AD1284602F026FE5DA3D3E9002302F0AF
:4002000075FE57A3D3E9002302F09AFF02460B4659A1D1E9000102F0B5FC5B4E06EB840603F026F9706030E0284602F00BFE4CA3D3E9002302F05AFE80468946A4F10A002B
:4002400002F0EEFD06460F4602460B464046494602F04CFE01F058FB00224C4B02F046FE804689463EA3D3E900233046394602F03DFE02460B464046494602F061FF424EDC
:4002800006EB840603F0F4F87060013400E00024142CACDDBDE8F087394B18684FF0804103F03AF9014603F039F9364903F0F2FA824600244CE00A2C0BD15146284603F0E0
:4002C0002BF9334903F032FA2F4B03EB840358603DE0284602F0B6FD21A3D3E9002302F005FE80468946A4F10A0002F099FD06460F4602460B464046494602F0F7FD01F0EE
:4003000003FB80468946504602F09CFD14A3D3E9002302F0EBFD02460B463046394602F0E5FD01F0F1FA02460B464046494602F029FC0022174B02F0D9FD32463B4602F05F
:40034000FFFE114E06EB840603F092F870600134142CB0DDBDE8F0873333333333330B401F85EB51B81E0940333333333333FB3F3333333333330340CDCCCCCCCCCCF43FE2
:40038000CC80FF1F0000FA456C81FF1F0000F8BF0000A0400000F83F0A2828D12B4B93F8553013F0FF0F50D170B5284DB5F8560080B203F063F9264E30600023A5F8563070
:4003C000012485F85540FFF7AFFE0A21204600F09FFD204800F030FD0A21204600F098FD306803F0F3FA80B200F0B0FD70BD174B002283F85520B3F856309BB223B980B2F7
:40040000124BA3F856007047104AB2F856309BB203EB83035900084480B2A2F85600B2F8561089B2B2F856309BB2642988BFB3F57A7F0AD9084A064B1A60044B0022A3F85C
:400440005620012283F85520704770476C81FF1FCC80FF1FE03A000000007A4410B501F049F800F0CDFF00F01DFC0446002000F0DDFD00F017FC0738072800F29B80DFE803
:4004800000F0729999994F992A0400F0EBFA0738072800F28F80DFE800F0108D8D8D0C8D08040120FFF778FF84E00220FFF774FF80E00320FFF770FF7CE00721002000F0A9
:4004C00027FD434800F0B8FC0022424B83F85420FFF72AFE6EE000F0C5FA0738072869D8DFE800F0106868680C6808040420FFF753FF5FE00520FFF74FFF5BE00620FFF757
:400500004BFF57E00721002000F002FD324800F093FC01222F4B83F85420FFF705FE49E000F0A0FA0738072844D8DFE800F0104343430C4308040720FFF72EFF3AE00820D1
:40054000FFF72AFF36E00920FFF726FF32E00721002000F0DDFC214800F06EFC02221D4B83F8542026E000F07DFA0738072821D8DFE800F01D20202013200F040022154BD1
:400580001A700F21012000F0C3FC154800F054FC10E00020FFF700FF0CE001200D4B18700F2100F0B5FC0F4800F046FC02E00A20FFF7F2FE00F076FB8442FBD000F092FF63
:4005C00000F00AFF012000F031FD00F073FB10BDE83A00006C81FF1FF43A0000003B00000C3B0000103B000008B562B64FF4804341F6FF720121084601F038F92F4C207050
:4006000000F0C6FA02462E4D287001234FF4805100F0D8FA45F683322A4989B2287800F0E5FA2978207800F085FA0121207800F039FA41F6FF734FF480420121084601F014
:4006400033F9214C207000F0A3FA02461F4D287006234FF4805100F0B5FA1D4A92B244F61061287800F0C2FA2978207800F062FA0121207800F016FA164800F0C9FC16484A
:4006800001F0E6F800F036FC012000F0CFFC00F0A3FE00F027FF00F08BFFFFF745FD0021084600F035FC0D4800F0C6FB0021012000F02EFC0A4800F0BFFBFEE7E291FF1FB0
:4006C000DC91FF1FE891FF1FE191FF1FE091FF1FD881FF1F5D04000085000000143B0000283B0000F0B40022174611E050F82760F3B226F0FF0608E001EB420511F8124091
:400700006D78A5550132013BDBB2002BF4D10137182FEBD9F0BC70470D4B1B78DBB203F007010C4A11701B09013213702023A2F2427213701032137002F65B121370022245
:40074000054B1A704422A3F28A231A70704700BFCF0100496E580040005B004008B50A46002103F0B0F908BD08B503F0A1F908BD10B500241F4B1C80502202331A7049F244
:40078000E51202331A80192202331A7004221A491A48FFF7E9FF0222194B1A7008214FF040231970174B1B78DBB217490B700621164B1970A3F5FE731C8007211970144929
:4007C0000C704820023108701C70033B1A7004220A331A700F4A137843F003031370013A137843F001031370013A137843F08003137010BD804000409001004800410040E3
:40080000004300400D010049A14600400042004006400040A2430040012807D8044B53F820201844017A13780B431370704700BF383B0000012808D8044B53F8202018444D
:40084000017A137823EA010313707047383B000038B572B661223B4B1A70FFF789FF3A4A137843F00403137000240BE0374863001A19510001440A46098AD068FFF76EFF8A
:400880000134E4B2062CF1D900240BE02F49A3001819420088180822C16B806BFFF764FF0134E4B2002CF1D029494FF09040FFF719FF0A25274B1D7004212748FFF74EFF4E
:4008C000042226492648FFF74FFF264A137843F0020313701032137843F002031370224C237843F040032370A2F58632513A137843F0100313702A461C491D48FFF734FFD0
:4009000008221C491C48FFF72FFF08221B491C48FFF72AFF08221B491B48FFF725FF08221A491B48FFF720FF1A4A137843F008031370FFF7F1FE0E2221461748FFF714FFEB
:4009400038BD00BF00480040E8460040383B0000640000488358004000760040940100485076004003500140A0430040640100480051004070010048C25100407801004838
:40098000125100408001004822510040880100483251004022430040B043004008B503F05BF803680C2B00D1FEE7FEE708B5104E104D16E029686B68AC68002204E051F837
:4009C000040B43F8040B0432A242F8D1E868002203E0002143F8041B04328242F9D11035013E002EE6D103F03DF8FFF7FDFDFEE701000000C03D000008B5114A114B1A60D5
:400A0000114A136843F40073136000230AE0032B03D80E4A52F8231000E00D490D4A42F8231001332F2BF2D90B4B1A780B4B1A70084A0B4B1A60FFF70BFF00F019F808BDD5
:400A40000004FA050CED00E014ED00E0000000009D0900000080FF1FBC760040C080FF1F08ED00E0014B187800097047015100400B4A7F2313708021517007E0DA0002F112
:400A8000804202F5F042013BDBB21370002BF5D1DB0003F1804303F5F04300221A707047D080FF1F172815D831B103010A495A5C42F020025A5405E0030107495A5C02F082
:400AC000DF025A540001044A835C43F00103835400207047012070471070004017280BD80001064A835C03F0F103490001F00E01194381540020704701207047107000409A
:400B000041F6FF73994201D14FF4005141F6FF739A4201D14FF40052172808D8C00000F1804000F5EC408180C280002070470120704700BF172805D8034B03EB0010417262
:400B400000207047012070471070004017281BD810B4C00000F1804404F5EC44D201D2B201F07F01114321709DF804201201D2B203F00F03134363709DF8083003F00F0375
:400B8000A3700020E07001E00120704710BC704710B500F0B1FE0A4B5B78182B0BD9084A1478013B5370E30003F1804303F5F0431B78137000E0FF2400F0A2FE204610BD45
:400BC000D080FF1F10F0800F0CD111F4704F0BD1C00000F1804000F5F04001808270C37000207047012070470120704710F0800F08D1C00000F1804000F5F0408180C28077
:400C0000002070470120704701BE704710B5044605E0084B186800F067FEA4F50044B4F5004FF6D8034B586800FB04F000F05CFE10BD00BFD880FF1F08B5034B1B7A00FBEC
:400C400003F000F051FE08BDD880FF1F70B504460E46074B1D681F2802D90020FFF7D4FF04F01F04103455F8240045F8246070BD08ED00E038B504460D46072902D900201E
:400C8000FFF7C2FF1F2C02D90020FFF7BDFF04F01F0000F1604000F564406D01EDB2057038BD00BF024B187800F00F00704700BF01510040024B187800F00F00704700BFDC
:400CC0008045004010B50B4C237803F09F032370237803F0F00323702378184340F0100020700120FFF7A8FF237803F0EF03237010BD00BFC051004038B505460E4C23785B
:400D000043F020032370237803F0BF0323700020FFF792FF237803F0F003237023781D4345F0100525700120FFF786FF237803F0EF03237038BD00BFC051004070B5354BF9
:400D40001A7802F08002D2B21A7033490A7802F0F00242F00F020A7001310A7802F0F0020A7001310A7802F0F0020A701A7802F0DF021A701A7842F040021A704FF4CA769A
:400D80000020FFF759FF234D2B7843F010032B700120FFF751FF214B1C78E4B22B7803F0EF032B700020FFF747FF04F00804E4B22B7843F010032B700120FFF73DFF2B7845
:400DC00003F0EF032B7014B90A20FFF735FF013E0CB1002ED4D10F4A137803F0BF031370137803F08003DBB213700232137803F0F00313700132137803F0F00343F00F0345
:400E000013700132137803F0F00343F00F03137070BD00BFC0510040C2510040C151004010B50446FFF78AFF2009FFF765FF04F00F00FFF761FF10BD38B5054600780124D5
:400E400004E0FFF7EDFF285D0134E4B20028F8D138BD00BF10B50446FFF770FF2009FFF731FF04F00F00FFF72DFF10BD08B52820FFF7CCFE0320FFF725FF0520FFF7C6FE21
:400E80000320FFF71FFF0F20FFF7C0FE0320FFF719FF0120FFF7BAFE0220FFF713FF0520FFF7B4FE0620FFF7D5FF0E20FFF7D2FF2C20FFF7CFFF0820FFF7CCFF0120FFF72C
:400EC000C9FF0C20FFF7C6FF0320FFF7C3FF0520FFF79CFE014800F06BF808BD7C3B000008B50C20FFF7B6FF0122014B1A7008BDC581FF1F08B5054B5B7823B9FFF7B6FF7E
:400F00000122024B5A70FFF7EBFF08BDC581FF1F08B5032819D8DFE800F002070D1381F08000FFF797FF08BDA1F14000C0B2FFF791FF08BDA1F16C00C0B2FFF78BFF08BD2F
:400F4000A1F12C00C0B2FFF785FF08BD10B584B000238DF80E30092211E0144BA3FB0013DB081C4603EB83035900431ADBB2303304A9114401F80C3C2046013AD2B20928FF
:400F8000EBD80A4BA3FB0013DB0803EB83035900431ADBB2303304A9114401F80C3C01AB9818FFF749FF04B010BD00BFCDCCCCCC38B50546FFF7C2FE4020FFF74BFF00246B
:400FC00004E0285DFFF72CFF0134E4B23F2CF8D9FFF7B4FE8020FFF73DFF38BD014B1B681865704708ED00E04001C0B2014B1870704700BF04E400E01022014B1A607047A5
:4010000000E100E01022014B1A60704780E100E010B50446FFF7F6FF2046FFF7DFFF0720FFF7E2FFFFF7E8FF10BD00BF014B1870704700BF7965004010B59DF80840012C2D
:4010400051D1013809282ED8DFE800F0052D2D052D2D0F192D230F2B03D92548007840B222E02448007840B21EE00F2B03D92248007840B218E02148007840B214E00F2B4B
:4010800003D91F48007840B20EE01E48007840B20AE00F2B03D91C48007840B204E01B48007840B200E0002001EB401101FB02F1C90B8AB20D2B0BD8C3F10E0289B211419E
:4010C0008AB2611E124800EB810101338B7005E0631E0F4901EB83030F219970013C0C4B23F8242010BD0020FFF78EFD10BD00BF180100491C010049190100491D01004957
:401100001A0100491E0100491B0100491F010049C881FF1FF8B5074600F0EEFB06460D4D2B7843F003032B700B4C237843F0030323700A4B1F700320FFF77EFD2B7803F0F2
:40114000FC032B70237803F0FC032370304600F0D7FBF8BDF8460040F9460040925800400022314B1A7101285DD170B538222F4B1A70042202331A70062201331A700024AF
:4011800001331C7001331C700F2201331A7002331C7001331C7001331C7001250A331D70142203F527631A70052601331E70162201331A7001331C70442203331A7048221A
:4011C00001331A7001331D7002331C7001331C700A2201331A70432201331A705220FFF799FF5822124B1A7001331C7005331E70022201331A7001331C7001331C70204633
:4012000000F0F8F933220B4B1A602946112000F015FA294640F2462000F094FA06491D20FFF714FD70BD7047C881FF1F004E0040945800400092FF1F05150000F0B583B04A
:40124000284D01272F70284E00247471102000F0E3F9102000F064FA07211D20FFF70AFD0422224B1A7001331C7007331C70204A137843F0180313701E4B1C7003F2F5236C
:401280001C7001331C700A22A3F209331A7001331C7002331C70122205331A70132201331A7004331C701422A3F68C231A70009708234FF4004248F66B510220FFF7BCFE13
:4012C0002B78013B06EB83039A780B4B1A702B78013B36F82320094B1A802878FFF740FF03B0F0BDE880FF1FC881FF1F96580040075B0040935800400E4E00400C4E004015
:4013000070B500F0F9FA06462A4B1B782A4B1A7842F001021A701A7842F010021A7010331A7842F001021A701A7842F010021A70224D2B7843F002032B70214C237843F017
:40134000020323701F4A137843F0030313700320FFF772FC2B7803F0FD032B70237803F0FD032370184A137843F0060313707A22164B1A70164A137843F001031370103232
:40138000137843F0010313700F3A137843F0010313701032137843F0010313704FF000530C4A1360A2F5C0721360304600F0A8FA70BD00BFE880FF1FAA430040F846004017
:4013C000F9460040915800407758004082580040A143004080E200E008B5084B9B794BB9064BDB7913F0FF0F01D1FFF727FF0122024B9A71FFF784FF08BD00BFC881FF1F0B
:4014000070B500F079FA0646314A137803F0FE0313700132137843F0040313702D4D2B7843F002032B702C4C237843F00203237002F52962137803F0FC03137001321378D2
:4014400003F0F70313700320FFF7F6FB2B7803F0FD032B70237803F0FD0323701F4B1A7802F0EF021A701A7802F0FE021A7010331A7802F0FE021A701A7802F0EF021A70D9
:40148000174A137803F0F9031370A2F5A652163A137803F0FE0313701032137803F0FE03137002F5A6521132137803F0F7031370A2F5A752137803F0FE031370103213781D
:4014C00003F0FE031370304600F01AFA70BD00BF004E0040F8460040F9460040AA43004077580040024A137843F0010313707047004E0040024A137803F0FE03137070476D
:40150000004E0040704700BF054A137843F0080313701032137843F008031370704700BFA8430040054B1A7802F0FD021A701A7800F0020010431870704700BF2C580040E7
:40154000014B1870704700BF835B0040064B1B78C3F3810303F19243063393F83831DBB2024A1370704700BF2C5800400B46004008B5064B1A7802F0F3021A701A7800F035
:401580000C0010431870FFF7E1FF08BD2C58004008B50023054A1370013213700420FFF7E7FF0220FFF7BEFF08BD00BF2C58004008B5074B1B7823B9FFF7EAFF0122044B91
:4015C0001A70FFF7A1FF6420FFF7BAFF08BD00BFD481FF1F10B5002404E02046FFF72AF90134E4B2012CF8D9FF22014B1A7010BDE980FF1F10B50446FFF7ECFF2046FFF7F5
:401600000BF9014B1C7010BDE980FF1F014B188880B2704780400040034B1A7800F0F80010431870704700BF82400040024B187800F00700704700BF8240004070B50546CE
:401640000E46FFF7F3FF0446FFF7E0FFA84256D02B4B1B7803F0010294B900B185B938B9284B1D80284A137803F0BF03137070BD254A137843F040031370224B1D8070BD37
:4016800022B3002321490B7001240F310C7004310B700C390B7803F07F030B701A4B1B7813F0080F00D08DB9194B18800721013B1970164B1B7813F0010FFAD110490B7845
:4016C00003F0FE030B700021104B19700C4B1B7813F0010F0DD00E4B1D800EB1032200E001220A4B1A70094B1B7813F0010FFAD170BD044B1D8002490B7813430B7070BD36
:40170000A243004080400040824000400140004002400040014B188880B2704700410040034B1A7800F0F80010431870704700BF02410040024B187800F00700704700BF43
:401740000241004070B505460E46FFF7F3FF0446FFF7E0FFA84256D02B4B1B7803F0010294B900B185B938B9284B1D80284A137803F0BF03137070BD254A137843F04003FD
:401780001370224B1D8070BD22B3002321490B70012413310C7004390B7008390B7803F07F030B701A4B1B7813F0080F00D08DB9194B18800721013B1970164B1B7813F039
:4017C000010FFAD110490B7803F0FE030B700021104B19700C4B1B7813F0010F0DD00E4B1D800EB1032200E001220A4B1A70094B1B7813F0010FFAD170BD044B1D800249FF
:401800000B7813430B7070BDA143004000410040024100400140004002400040014B1B681864704708ED00E04001C0B2014B1870704700BF00E400E00122014B1A607047C4
:4018400000E100E00122014B1A60704780E100E010B50446FFF7F6FF2046FFF7DFFF0720FFF7E2FFFFF7E8FF10BD00BFF0B583B016461F460B4D00242C70019400942346E8
:401880000A4601462046FFF761F93A4631462878FFF736F902212878FFF720F9287803B0F0BD00BFEA80FF1FF0B583B016461F460B4C0A2525700023019300932B460A4647
:4018C00001462846FFF742F93A4631462078FFF717F902212078FFF701F9207803B0F0BDEB80FF1F000000000230800803D000BF01380046FCD17047EFF3108072B67047A1
:4019000080F31088704700BF30B5214A21F00043934287B01BDD1F4A934205DD02460B4601F030F907B030BD02AA00F035F800F0030001281ED0022811D0DDE9042300B389
:40194000DDE9020100F040FA01F10041EAE7002300930022002300F053FF07B030BD01230093DDE90201DDE9042300F049FF01F10041D7E7DDE90423DDE9020100F024FA35
:40198000D0E70124DDE90201009400F039FFC9E7FB21E93FFFFFEF7F2DE9F04F944C21F00047A7428FB040F381801446914A0E46974226DC84A3D3E90023002940F3A08196
:4019C00001F0E0F88C4B80469F42894600F083807FA3D3E9002301F0D5F802460B464046C4E90023494601F0CDF879A3D3E9002301F0C8F80125C4E9020128460FB0BDE897
:401A0000F08F7E4A974240F383807D4A974258DC3D15A5F21645A7EB05518B46824601F0FFFC01F0FDF98046894642464B4650465946CDE9088901F0A5F80022714B01F05D
:401A400055FA8B46824601F0EBFC01F0E9F98046894642464B4650465946CDE90A8901F091F80022674B01F041FA00220023CDE90C0101F0A3FC002800F06A8100234046E9
:401A80004946002201F09AFC002814BF012302235D480221019000912A46214608A800F0B7FA002EC0F24A81054606E0C2E9000100250024C2E90245002528460FB0BDE8DE
:401AC000F08F02460B4601F05DF80025C4E90201C4E90001F1E740A3D3E9002301F052F83FA3D3E9002306460F4601F04BF802460B463046C4E90023394601F043F838A335
:401B0000D3E9002301F03EF80125C4E90201D4E700F02CFF34A3D3E900238046894601F0E5F90022394B01F02FF801F079FC054601F076F924A3D3E90023CDE9040101F0B8
:401B4000D5F902460B464046494601F01BF820A3D3E9002382468B46DDE9040101F0C6F91F2DCDE9020155DC294B6A1E53F822309F424FD002460B465046594601F002F8A7
:401B800002460B4681468846C4E900234A4643465046594600F0F6FFDDE9022300F0F2FF02460B46002EC4E9022386DA4A4608F1004301F1004184E80C00E160A0606D42C8
:401BC0007BE700BFAFF3008000004054FB21F93F3163621A61B4D03D0000601A61B4D03D7370032E8A19A33B83C8C96D305FE43FFB21E93F7BD90240FB21F93FFB21394160
:401C0000FFFFEF7F000070413C3C00000000E03FBC3B0000DDE902235046594600F0B2FF3F15C1F30A53FB1A102B81468846C4E90001ABDD58A3D3E90023DDE9040101F022
:401C400055F98046894602460B465046594600F099FFCDE9060102460B465046594600F091FF42464B4600F08DFF4DA3D3E9002380468946DDE9040101F038F942464B4621
:401C800000F080FF02460B46CDE90201DDE9060100F078FF0B4602468846C1F30A517F1A312F8146C4E9002372DD3FA3D3E90023DDE9040101F01AF98046894602460B461C
:401CC000DDE9060100F05EFF02460B4682468B46DDE9060100F056FF42464B4600F052FF33A3D3E9002380468946DDE9040101F0FDF842464B4600F045FFCDE9020139E70B
:401D000000F042FF2E4B80469F42894622D02AA3D3E9002300F038FF02460B464046C4E90023494600F02EFF23A3D3E9002300F02BFF4FF0FF35C4E90201BEE66268E36888
:401D400002F1004203F1004345426260E360B4E603239DE610A3D3E9002300F015FF10A3D3E9002306460F4600F00EFF02460B463046C4E90023394600F004FF08A3D3E9AA
:401D8000002300F001FF4FF0FF35C4E9020194E6DDE906ABFAE600BF0000601A61B4D03D7370032E8A19A33B0000002E8A19A33BC14920259A837B393163621A61B4D03D2B
:401DC000FB21F93F000000002DE9F04F21F00046B6F1795F85B00C4692469B4605466BDA01F01EFB002800F0E7802A4623462846214601F07BF874A3D3E90023804689466E
:401E000001F074F872A3D3E9002300F0BDFE42464B4601F06BF870A3D3E9002300F0B2FE42464B4601F062F86DA3D3E9002300F0ABFE42464B4601F059F86BA3D3E9002373
:401E400000F0A0FE42464B4601F050F868A3D3E9002300F099FE42464B4601F047F8CDE900010022644B4046494601F03FF8DDE9002306460F464046494601F037F85246AC
:401E8000804689465B462846214601F02FF802460B464046494600F075FE02460B463046394600F06FFE02460B460020534900F069FE05B0BDE8F08F02460B4601F016F8E6
:401EC00041A3D3E900238046894601F00FF840A3D3E9002300F058FE42464B4601F006F83DA3D3E9002300F04DFE42464B4600F0FDFF3BA3D3E9002300F046FE42464B4679
:401F000000F0F4FF38A3D3E9002300F03BFE42464B4600F0EBFF36A3D3E9002300F034FE4B46424600F0E2FF354BCDE900019E4297DD344B00229E4238DCA6F50013002036
:401F40002E4916461F4600F01DFECDE902010022294B4046494600F0C9FF32463B4600F011FEDDE9002306460F464046494600F0BDFF5246804689465B462846214600F02C
:401F8000B5FF02460B464046494600F0FBFD02460B463046394600F0F5FD02460B46DDE9020100F0EFFD05B0BDE8F08F164B0026CDE90223154FCAE71049002005B0BDE806
:401FC000F08F00BFAFF30080D43888BEE9FAA8BDC4B1B4BD9EEE213EAD529C804F7E923E9015CB19A001FA3E7751C1166CC1563F4C5555555555A53F0000E03F0000F03F74
:402000003233D33F0000E93F0000E73F0000D23F2DE9F04F794CADF51D7D1F460B93D31E84FB0354DB17C3EBA403A69E744C23EAE37554F826406B1C26460994A3EB8303A4
:402040007C1E0D95029402EBC3032D1B341904900A91089316D42C44013422AEA79F08E057F8250000F0DCFE0135A542E6E9020108D0002DF4DA013500200021A542E6E9C2
:402080000201F6D1099B002B2FDB099B74AADDF8089002EBC30B0DF5E47A029B002BC0F295810B9B0026C3EB090824AB03EBC808049B0027A3F1080524AB03EBC904F5E9BC
:4020C000022374E8020100F011FF02460B463046394600F059FD444506460F46EFD1EAE90267DA4509F10109D7D1099B10A91D4603F18043023B9B001A1D0A440B440F92D3
:402100000E939CAB03EBC503002D53E928672BDD9CAB03EBC504A83C0DF13C0A0DF5E47B0022384B3046394600F0E0FE01F078F900F076FE0022344B8046894600F0D6FE52
:4021400002460B463046394600F01CFD01F068F974E802234AF8040F4946404600F014FD5C4506460F46DBD1089C30463946224600F08AFC00224FF07F5306460F4600F061
:40218000B5FE00F0F9FB0022204B00F0AFFE02460B463046394600F0F5FC0F46064601F03FF9814600F03CFE02460B463046394600F0E8FC002C06460F4640F3EE80681EDE
:4021C00010AB53F82030C4F1180243FA02F101FA02F29B1AC4F1170810AA42F82030894443FA08F8B8F1000F3DDD002D09F1010940F3D382002214460FA911E0ABAAAA2AEB
:40220000443D00000000703E0000704100002040C3F180700BB108600124013295420DDD51F8043F002CF3D0C3F1FF13013203F57F4395420B604FF00104F1DC089B002B2E
:402240000DDD012B00F0B180022B08D16A1E10AB53F8223010A9C3F3150341F82230B8F1020F00F08180002200233046394601F0A5F8002800F05B82099B05F1FF3B5B4553
:4022800010DC05F1804310AA013B0F9802EB8303002253F80419834242EA0102F9D1002A40F0B180099B10AA013B52F82330002B40F071820E9A012352F804190133002981
:4022C000FAD0E9186A1C8A420C914BDC0D990B985118DB0001F180410593A79B05440139E80003EB810A24ABD20003EB000B74AB13440193A2F10803069007934FF0000945
:402300005AF8040F00F08CFD029BEBE80201002B4FF000064FF000071BDB069B03EB0904079B09EB030824AB1C449844049BA3F10805F5E9022374E8020100F0D7FD0246AA
:402340000B463046394600F01FFC444506460F46EFD1019B09F10809E3E802670193059B9945CDD10C9DCCE632463B460020B04900F008FC06460F46002C3FF474AF089A71
:402380000020AB4900F080FB02460B463046394600F0F8FB06460F4665E710D16B1E10AA52F823304FEAE3581CE76A1E10AB53F8223010A9C3F3160341F822304FE70022BD
:4023C0009C4B01F019F858B980464CE700260027EAE90267DA4509F101097FF45EAE84E6002D09F10109C8BF4FF002083FF702AF32463B4600208E4900F0C4FB4FF0020885
:4024000006460F462FE7089A10AB53F82B30183ACDF81490CDF8048008926BB90BF18043013B10A901EB830353F804190BF1FF3B183A0029F8D00892089A00207C4900F008
:4024400023FBBBF1000F04460D46C0F2B6814FEACB030DF5E87810AA02EB8B0608EB03090493043609F1080756F8040D00F0D8FC22462B4600F03AFD002267E902016E4B32
:402480002046294600F032FDB84504460D46EBD14B46CDF818B09B460DF5987ACDF808A0DDF824A04FF00009BAF1000FC0F226815DA3D3E90023DFF884815D4600260027B3
:4024C000002403E0A14510DBF8E90223F5E8020100F00CFD02460B463046394600F054FB0134A24506460F46ECDA029BABF1080B03EBC903C3E9006772AB5B4509F10109FB
:40250000D2D1A69BDDF818B0DDF808A0032B00F28380DFE813F0D100950095000400BBF1000F40F35481049BCDF808B053449846D3E90067D34658E9029A32463B464846BD
:40254000514600F021FB04460D4602460B464846514600F017FB32463B4600F015FBC8E9000168E90245C34526462F46E3D1DA46DDF808B0BBF1010F40F32981049B0DF594
:402580009C7B53449846D3E90067994659E902343046CDE902341A463946234600F0F4FA04460D4602460B46DDE9020100F0EAFA32463B4600F0E8FAC9E9000169E90245A3
:4025C000CB4526462F46E1D100231D4608F1080850AC184678E90223294600F0D5FA444503460D46F5D1019A002A00F0D880DAF80440DAF80C200A9FDAF80010DAF808002A
:4026000005F1004504F1004402F100427D613B617C60FA603960B860059B03F007000DF51D7DBDE8F08F00BF00000040FB21F93F0000F03F0000E03F0000703E583D000052
:4026400000242146049D0835554475E90223204600F09AFA55450446F7D1019B002B50D00A9F01F100450B46DAE9000187E83000224600F087FABBF1000F03460D460DDDAA
:4026800001241846FAE90223294600F07DFA0134A34503460D46F4DA019A0AB105F10045184629460A9BC3E90201059B03F007000DF51D7DBDE8F08F00231C46049A0832C9
:4026C000924418467AE90223214600F05DFA0BF1FF3BBBF1FF3F03460C46F2D1019A0AB104F10044184621460A9BC3E90001059B03F007000DF51D7DBDE8F08F00260027A5
:40270000F3E626460F4622460A9C0B46DAE90001C4E9006700F036FABBF1000F03460D46AEDC184629460A9BC3E90201BDE7089B30465A423946CDF81490CDF8048000F02C
:40274000A3F900222C4B06460F4600F055FE002840D00022294B3046394600F0C7FB00F05FFE044600F05CFB0022234B00F0BEFB0B4602463946304600F004FA00F050FEFA
:40278000089B05F1010B1833089310AB43F8250043F82B4050E6012393E500244EE51846DAE90067DAE9022329460A9DC5E90067C5E90401C5E902232EE7A69B032B3FF6CA
:4027C0002BAFDFE803F0151010020DF5987A00231D4608E73046394600F022FE10ABAB4643F8250028E6002421460DF5987A34E700231C4672E700BF000070410000703EB0
:402800002DE9F04F21F00046B6F1795F85B00C4690469946054604DA00F002FE002800F085802A4623462846214600F05FFB06460F4602460B462846214600F057FB3EA3D1
:40284000D3E9002382468B463046394600F04EFB3BA3D3E9002300F095F932463B4600F045FB39A3D3E9002300F08EF932463B4600F03CFB36A3D3E9002300F083F9324660
:402880003B4600F033FB34A3D3E9002300F07CF90E9BCDE900019BB30022334B4046494600F024FBDDE90023CDE902015046594600F01CFB02460B46DDE9020100F062F961
:4028C00032463B4600F012FB42464B4600F05AF923A3D3E9002306460F465046594600F005FB02460B463046394600F04DF902460B462846214600F045F905B0BDE8F08FE2
:4029000002460B463046394600F0F0FA14A3D3E9002300F037F952465B4600F0E7FA2A46234600F031F905B0BDE8F08F2846214605B0BDE8F08F00BF7CD5CF5A3AD9E53D87
:40294000EB9C2B8AE6E55A3E7DFEB157E31DC73ED561C119A0012A3FA6F810111111813F495555555555C53F0000E03F21F00041704700BF00000000C1F30A522DE9F84337
:40298000A2F2FF36132E0B4604460D46884607461CDC002E3FDB3A4A864642FA06F901EA0902024317D034A3D3E9002300F0ECF80022002300F02AFD20B1002D40DB28EA06
:4029C0000905002738462946BDE8F883332E06DDB6F5806F2FD020461946BDE8F883A2F213424FF0FF3929FA02F910EA090FF2D021A3D3E9002300F0C7F80022002300F0FA
:402A000005FD0028DED0002D20DB454627EA090738462946D8E718A3D3E9002300F0B4F80022002300F0F2FC0028CBD0002D18DB00273D46C6E702460B4600F0A5F8CCE7D2
:402A40004FF4801343FA06F6B044B8E7142E10D00123C6F1340603FA06F6371928BF9844D3E725F00042074B224318BF1D460027A8E705F10108C8E79C7500883CE4377E9D
:402A8000FFFF0F000000F0BFF8B5C1F30A5604460D460B46174606BB21F00043034325D000222F4B00F022FA2E4A044697420D460B462ADBC1F30A56363E40F2FE723E4466
:402AC000964228DC002E12DD23F0FF4323F4E00343EA065520462946F8BD40F2FF729642EBD102460B4600F04FF8F8BDF8BD16F1350F1DDA4CF250339F420CDC14A1D1E9D0
:402B0000000122462B4600F031F811A3D3E9002300F0ECF9F8BD22460FA1D1E900012B4600F024F80CA3D3E9002300F0DFF9F8BD23F0FF4323F4E003363643EA0655204681
:402B400029460022084B00F0D1F9F8BDAFF3008059F3F8C21F6EA5019C7500883CE4377E00005043B03CFFFF0000903C03F0004321F0004242EA0301704700BF81F000410F
:402B800002E000BF83F0004330B54FEA41044FEA430594EA050F08BF90EA020F1FBF54EA000C55EA020C7FEA645C7FEA655C00F0E2804FEA5454D4EB5555B8BF6D420CDD83
:402BC0002C4480EA020281EA030382EA000083EA010180EA020281EA0303362D88BF30BD11F0004F4FEA01314FF4801C4CEA113102D0404261EB410113F0004F4FEA033380
:402C00004CEA133302D0524263EB430394EA050F00F0A780A4F10104D5F1200E0DDB02FA0EFC22FA05F2801841F1000103FA0EF2801843FA05F359410EE0A5F120050EF10F
:402C4000200E012A03FA0EFC28BF4CF0020C43FA05F3C01851EBE37101F0004507D54FF0000EDCF1000C7EEB00006EEB0101B1F5801F1BD3B1F5001F0CD349085FEA300089
:402C80004FEA3C0C04F101044FEA445212F5800F80F09A80BCF1004F08BF5FEA500C50F1000041EB045141EA050130BD5FEA4C0C404141EB010111F4801FA4F10104E9D11A
:402CC00091F0000F04BF01460020B1FA81F308BF2033A3F10B03B3F120020CDA0C3208DD02F1140CC2F10C0201FA0CF021FA02F10CE002F11402D8BFC2F1200C01FA02F13E
:402D000020FA0CFCDCBF41EA0C019040E41AA2BF01EB0451294330BD6FEA04041F3C1CDA0C340EDC04F11404C4F1200220FA04F001FA02F340EA030021FA04F345EA0301A5
:402D400030BDC4F10C04C4F1200220FA02F001FA04F340EA0300294630BD21FA04F0294630BD94F0000F83F4801306BF81F480110134013D4EE77FEA645C18BF7FEA655C9E
:402D800029D094EA050F08BF90EA020F05D054EA000C04BF1946104630BD91EA030F1EBF0021002030BD5FEA545C05D14000494128BF41F0004130BD14F580043CBF01F5BD
:402DC000801130BD01F0004545F0FE4141F470014FF0000030BD7FEA645C1ABF194610467FEA655C1CBF0B46024650EA013406BF52EA033591EA030F41F4002130BD00BF4D
:402E000090F0000F04BF0021704730B54FF4806404F132044FF000054FF0000150E700BF90F0000F04BF0021704730B54FF4806404F1320410F0004548BF40424FF0000148
:402E40003EE700BF42004FEAE2014FEA31014FEA02701FBF12F07F4393F07F4F81F06051704792F0000F14BF93F07F4F704730B54FF4607401F0004521F0004120E700BF78
:402E800050EA010208BF704730B54FF000050AE050EA010208BF704730B511F0004502D5404261EB41014FF4806404F132045FEA915C3FF4DCAE4FF003025FEADC0C18BFE6
:402EC00003325FEADC0C18BF033202EBDC02C2F1200300FA03FC20FA02F001FA03FE40EA0E0021FA02F11444C1E600BF70B54FF0FF0C4CF4E06C1CEA11541DBF1CEA13550A
:402F000094EA0C0F95EA0C0F00F0DEF82C4481EA030621EA4C5123EA4C5350EA013518BF52EA033541F4801143F4801338D0A0FB02CE4FF00005E1FB02E506F00042E0FB88
:402F400003E54FF00006E1FB03569CF0000F18BF4EF0010EA4F1FF04B6F5007F64F5407404D25FEA4E0E6D4146EB060642EAC62141EA55514FEAC52040EA5E504FEACE2EEC
:402F8000B4F1FD0C88BFBCF5E06F1ED8BEF1004F08BF5FEA500E50F1000041EB045170BD06F0004646EA010140EA020081EA0301B4EB5C04C2BFD4EB0C0541EA045170BDC5
:402FC00041F480114FF0000E013C00F3AB8014F1360FDEBF002001F0004170BDC4F10004203C35DA0C341BDC04F11404C4F1200500FA05F320FA04F001FA05F240EA02009D
:4030000001F0004221F0004110EBD37021FA04F642EB06015EEA430E08BF20EAD37070BDC4F10C04C4F1200500FA04F320FA05F001FA04F240EA020001F0004110EBD3707E
:4030400041F100015EEA430E08BF20EAD37070BDC4F1200500FA05F24EEA020E20FA04F301FA05F243EA020321FA04F001F0004121FA04F220EA020000EBD3705EEA430ED6
:4030800008BF20EAD37070BD94F0000F0FD101F00046400041EB010111F4801F08BF013CF7D041EA060195F0000F18BF704703F00046520043EB030313F4801F08BF013D8A
:4030C000F7D043EA0603704794EA0C0F0CEA135518BF95EA0C0F0CD050EA410618BF52EA4306D1D181EA030101F000414FF0000070BD50EA410606BF1046194652EA4306CC
:4031000019D094EA0C0F02D150EA013613D195EA0C0F05D152EA03361CBF104619460AD181EA030101F0004141F0FE4141F470014FF0000070BD41F0FE4141F4780170BD27
:4031400070B54FF0FF0C4CF4E06C1CEA11541DBF1CEA135594EA0C0F95EA0C0F00F0A7F8A4EB050481EA030E52EA03354FEA013100F088804FEA03334FF0805545EA13131A
:4031800043EA12634FEA022245EA111545EA10654FEA00260EF000419D4208BF964244F1FD0404F5407402D25B084FEA3202B61A65EB03055B084FEA32024FF480104FF466
:4031C000002CB6EB020E75EB030E22BFB61A754640EA0C005B084FEA3202B6EB020E75EB030E22BFB61A754640EA5C005B084FEA3202B6EB020E75EB030E22BFB61A75469D
:4032000040EA9C005B084FEA3202B6EB020E75EB030E22BFB61A754640EADC0055EA060E18D04FEA051545EA16754FEA06164FEAC30343EA52734FEAC2025FEA1C1CC0D1C7
:4032400011F4801F0BD141EA00014FF000004FF0004CB6E711F4801F04BF01430020B4F1FD0C88BFBCF5E06F3FF6AFAEB5EB030C04BFB6EB020C5FEA500C50F1000041EBB6
:40328000045170BD0EF0004E4EEA113114EB5C04C2BFD4EB0C0541EA045170BD41F480114FF0000E013C90E645EA060E8DE60CEA135594EA0C0F08BF95EA0C0F3FF43BAF78
:4032C00094EA0C0F0AD150EA01347FF434AF95EA0C0F7FF425AF104619462CE795EA0C0F06D152EA03353FF4FDAE1046194622E750EA410618BF52EA43067FF4C5AE50EA6E
:4033000041047FF40DAF52EA43057FF4EBAE12E74FF0FF3C06E000BF4FF0010C02E000BF4FF0010C4DF804CD4FEA410C7FEA6C5C4FEA430C18BF7FEA6C5C1BD001B050EA05
:40334000410C0CBF52EA430C91EA030F02BF90EA020F0020704710F1000F91EA030F58BF994208BF90422CBFD8176FEAE37040F0010070474FEA410C7FEA6C5C02D150EAA0
:40338000013C07D14FEA430C7FEA6C5CD6D152EA033CD3D05DF8040B704700BF8446104662468C461946634600E000BF01B5FFF7B7FF002848BF10F1000F01BD4DF808EDC6
:4033C000FFF7F4FF0CBF012000205DF808FB00BF4DF808EDFFF7EAFF34BF012000205DF808FB00BF4DF808EDFFF7E0FF94BF012000205DF808FB00BF4DF808EDFFF7CEFFA6
:4034000094BF012000205DF808FB00BF4DF808EDFFF7C4FF34BF012000205DF808FB00BF4FEA410212F5001215D211D56FF47873B3EB625212D94FEAC12343F0004343EAF6
:40344000505311F0004F23FA02F018BF404270474FF00000704750EA013005D111F0004008BF6FF0004070474FF00000704700BF4FEA4102B2F1E04324BFB3F5001CDCF13A
:40348000FE5C0DD901F0004C4FEAC0024CEA5070B2F1004F40EB830008BF20F00100704711F0804F21D113F13872BCBF01F00040704741F480114FEA5252C2F11802C2F179
:4034C000200C10FA0CF320FA02F018BF40F001004FEAC1234FEAD32303FA0CFC40EA0C0023FA02F34FEA4303CCE77FEA625307D150EA01331EBF4FF0FE4040F440007047CF
:4035000001F0004040F0FE4040F40000704700BF80F0004002E000BF81F0004142001FBF5FEA410392EA030F7FEA226C7FEA236C6AD04FEA1262D2EB1363C1BFD218414010
:4035400048404140B8BF5B42192B88BF704710F0004F40F4000020F07F4018BF404211F0004F41F4000121F07F4118BF494292EA030F3FD0A2F1010241FA03FC10EB0C0014
:40358000C3F1200301FA03F100F0004302D5494260EB4000B0F5000F13D3B0F1807F06D340084FEA310102F10102FE2A51D2B1F1004F40EBC25008BF20F0010040EA0300EB
:4035C0007047490040EB000010F4000FA2F10102EDD1B0FA80FCACF1080CB2EB0C0200FA0CF0AABF00EBC25052421843BCBFD0401843704792F0000F81F4000106BF80F48F
:4036000000000132013BB5E74FEA41037FEA226C18BF7FEA236C21D092EA030F04D092F0000F08BF0846704790EA010F1CBF0020704712F07F4F04D1400028BF40F0004014
:40364000704712F100723CBF00F50000704700F0004343F0FE4040F4000070477FEA226216BF08467FEA23630146420206BF5FEA412390EA010F40F4800070474FF00003B5
:4036800004E000BF10F0004348BF40425FEA000C08BF704743F0964301464FF000001CE050EA010208BF70474FF000030AE000BF50EA010208BF704711F0004302D540423C
:4036C00061EB41015FEA010C02BF84460146002043F0B64308BFA3F18053A3F50003BCFA8CF2083AA3EBC25310DB01FA02FC634400FA02FCC2F12002BCF1004F20FA02F284
:4037000043EB020008BF20F00100704702F1200201FA02FCC2F1200250EA4C0021FA02F243EB020008BF20EADC7070474FF0FF0C1CEAD0521EBF1CEAD15392EA0C0F93EAC1
:403740000C0F6FD01A4480EA010C400218BF5FEA41211ED04FF0006343EA501043EA5111A0FB01310CF00040B1F5000F3EBF490041EAD3715B0040EA010062F17F02FD2AB6
:403780001DD8B3F1004F40EBC25008BF20F00100704790F0000F0CF0004C08BF49024CEA502040EA51207F3AC2BFD2F1FF0340EAC250704740F400004FF00003013A5DDC4F
:4037C00012F1190FDCBF00F000407047C2F10002410021FA02F1C2F1200200FA02FC5FEA310040F1000053EA4C0308BF20EADC70704792F0000F00F0004C02BF400010F46E
:40380000000F013AF9D040EA0C0093F0000F01F0004C02BF490011F4000F013BF9D041EA0C018FE70CEAD15392EA0C0F18BF93EA0C0F0AD030F0004C18BF31F0004CD8D14C
:4038400080EA010000F00040704790F0000F17BF90F0004F084691F0000F91F0004F14D092EA0C0F01D142020FD193EA0C0F03D14B0218BF084608D180EA010000F0004051
:4038800040F0FE4040F40000704740F0FE4040F4400070474FF0FF0C1CEAD0521EBF1CEAD15392EA0C0F93EA0C0F69D0A2EB030280EA010C49024FEA402037D04FF080532F
:4038C00043EA111143EA10130CF000408B4238BF5B0042F17D024FF4000C8B4224BF5B1A40EA0C00B3EB510F24BFA3EB510340EA5C00B3EB910F24BFA3EB910340EA9C0020
:40390000B3EBD10F24BFA3EBD10340EADC001B0118BF5FEA1C1CE0D1FD2A3FF650AF8B4240EBC25008BF20F0010070470CF0004C4CEA50207F32C2BFD2F1FF0340EAC25084
:40394000704740F400004FF00003013A37E792F0000F00F0004C02BF400010F4000F013AF9D040EA0C0093F0000F01F0004C02BF490011F4000F013BF9D041EA0C0195E700
:403980000CEAD15392EA0C0F08D142027FF47DAF93EA0C0F7FF470AF084676E793EA0C0F04D14B023FF44CAF08466EE730F0004C18BF31F0004CCAD130F000427FF45CAF0F
:4039C00031F000437FF43CAF5FE700BF4FEA4002B2F1FE4F0FD34FF09E03B3EB12620DD94FEA002343F0004310F0004F23FA02F018BF404270474FF00000704712F1610F32
:403A000001D1420205D110F0004008BF6FF0004070474FF00000704742000ED2B2F1FE4F0BD34FF09E03B3EB126209D44FEA002343F0004323FA02F070474FF000007047FA
:403A400012F1610F01D1420202D14FF0FF3070474FF00000704700BF014B1868704700BF4C81FF1F0E4B70B51E460E4C0025E41AA410A54204D056F8253098470135F8E77E
:403A800000F08CF9084B094C1E46E41AA4100025A54204D056F8253098470135F8E770BDA83D0000A83D0000A83D0000B03D000010B5431E0A44914204D011F8014B03F828
:403AC000014FF8E710BD03460244934202D003F8011BFAE770470000000000000000000020202020000000005061736142616A6F7300000050617361416C746F7300000069
:403B00005061736142616E64610000002A0000002300000046696C74726F205061736142616A6F7300000000462E20436F7274653A20333030000000035B00402443004016
:403B400040000000405100403000F0510040100000000140001000140140000800400140000A004C014000020050014020000000004500405C0100480800000001010101C4
:403B800001010101000A0A0404040000000E0A0E08080000000E0A0C0A0A0000000E080C080E0000000E080E020E0000000E080E020E00000004040400040000FB21F93F6F
:403BC000FB2109407CD91240FB2119407A6A1F407CD92240BBFD2540FB2129403A462C407A6A2F405C4731407CD932409C6B3440BBFD3540DB8F3740FB2139401BB43A4027
:403C00003A463C405AD83D407A6A3F404C7E40405C4741406C1042407CD942408CA243409C6B4440AC344540BBFD4540CBC64640DB8F4740EB584840FB21494083F9A200BF
:403C4000444E6E00FC291500D1572700DD34F50062DBC0003C999500419043006351FE00BBDEAB00B761C5003A6E2400D24D42004906E00009EA2E001C92D100EB1DFE0065
:403C800029B11C00E83EA700F535820044BB2E009CE98400B4267000417E5F00D6913900538339009CF439008B5F840028F9BD00F81F3B00DEFF97000F980500112FEF0092
:403CC0000A5A8B006D1F6D00CF7E360009CB2700464FB7009E663F002DEA5F00BA277500E5EBC7003D7BF100F739070092528A00FB6BEA001FB15F00085D8D003003560024
:403D00007BFC4600F0AB6B0020BCCF0036F49A00E3A91D005E619100081BE60085996500A0145F008D40680080D8FF0027734D0006063100CA561500C9A873007BE2600033
:403D40006B8CC000020000000300000004000000060000000000000000000040FB21F93F000000002D44743E000000809846F83C0000006051CC783B00000080831BF039BD
:403D80000000004020257A38000000802282E336000000001DF3693543000000F8B500BFF8BC08BC9E4670474D000000F9090000F8B500BFF8BC08BC9E4670472900000028
:403DC000D03D0000C880FF1F88000000B810000000000000000096437F800000010400000000E691CC2301004B000000E0D4730401FFFFFF00000000000000000000000048
:403E00000000000000000000000000000000000000000000983D000000000000000000000000000000000000000000000000000000000000000000000000000000000000AD
:403E40000000000000000000000000000000000000000000EC80FF1F00000000000000000000000000000000000000000000000000000000000000000000000000000000B8
:403E80000000000000000000000000000000000000000000000000000000000000000000000000000000000000000000000000000000000000000000000000000000000002
:403EC00000000000000000000000000000000000000000000000000000000000000000000000000000000000000000000000000000000000000000000000000000000000C2
:403F00000000000000000000000000000000000000000000000000000000000000000000000000000000000000000000000000000000000000000000000000000000000081
:403F40000000000000000000000000000000000000000000000000000000000000000000000000000000000000000000000000000000000000000000000000000000000041
:020000040003F7
:0200000480007A
:400000000452004001650040010501400307014006090140040A0140040B0140011501401418014012190140011B0140044001400A4101400B4201400A43014002440140C2
:400040000345014005460140034701400248014001490140014C0140024D0140045001400351014000A00190100211027901E204E608EA04EE0186049D05A402A740A9059A
:40008000B40138803E4058045F01180283408402E008EC1083018C098E069003920C9303B008B102B202B404B601B701B8AABB82BE55D804D904DB04DC10DF0102020A80F4
:4000C00019051A081B402101224230023902680296089D05A402A740C001C208CC01CE01EC1033803F40CC10CE20114059015E02638064409740A780C440D6C0D8C04F40CB
:40010000834097409C409D01A601A740A940AB80D220E2201340844097409C40A901AA01C440E610EA20EE807C08DE0157029C08D604450887029C08A702D001A508B408ED
:40014000E8022510C820B510A508B508EC080214100212141C0200031002122002020202000000000F0000FFF000F00000000000007F7F0000000000000B0B000000000098
:400180000002020002002000000000000000200047021801000A0000000000000000000000000000000000000000000000000000000000000000000000000000000000008D
:4001C00000000000000000000000000000000000000000000000000000000000000000000000000000000000000000000000000000000000000000000000000000000000FF
:4002000000000000000000000000000000000000000000000000000000000000000000000000000000000000000000000000000000000000000000000000000000000000BE
:40024000000000000000000000000000000000000000000000000000000000000000000000000000000000000000000000000000000000000000000000000000000000007E
:40028000000000000000000000000000000000000000000000000000000000000000000000000000000000000000000000000000000000000000000000000000000000003E
:0200000490006A
:0400000000004005B7
:0200000490105A
:04000000BC90ACAF55
:0200000490303A
:02000000B22C20
:0200000490402A
:4000000000000000000000000000000000000000000000000000000000000000000000000000000000000000000000000000000000000000000000000000000000000000C0
:400040000000000000000000000000000000000000000000000000000000000000000000000000000000000000000000000000000000000000000000000000000000000080
:400080000000000000000000000000000000000000000000000000000000000000000000000000000000000000000000000000000000000000000000000000000000000040
:4000C0000000000000000000000000000000000000000000000000000000000000000000000000000000000000000000000000000000000000000000000000000000000000
:0200000490501A
:0C00000000012E16106900012E2EC29582
:00000001FF