:400000000080002011000000D5040000D504000008B5044B1A6803F53F5302331A6000F061FA00BFFA46004010B5054C237833B9044B13B10448AFF300800123237010BD6A
:400040004081FF1F00000000180A0000084B10B51BB108490848AFF300800848036803B910BD074B002BFBD0BDE81040184700BF000000004481FF1F180A0000C880FF1FCE
:400080000000000008B50A280DD1274B1B7813F0FF0F2CD1244B5A8892B29A8000225A8001221A7023E0204B00221A705B889BB21BB980B21C4B588019E01B4A53889BB2F3
:4000C00003EB83035900084480B2508053889BB2642B0CD953889BB2B3F57A7F07D913464FF47A729A8000225A8001221A700A21012000F0ADFB0D4800F03EFB0A210120A7
:4001000000F0A6FB084B1B7813F0FF0F05D1064B588880B200F0BAFB08BD034B988880B200F0B4FB08BD00BF5C81FF1F1C0A000010B500F057FA0446002000F017FC00F04D
:4001400051FA073807286FD8DFE800F0616E6E6E426E230400F020FA0738072864D8DFE800F0106363630C6308040120FFF78AFF5AE00220FFF786FF56E00320FFF782FFE0
:4001800052E00621002000F063FB2C4800F0F4FA4AE000F001FA0738072845D8DFE800F0104444440C4408040420FFF76BFF3BE00520FFF767FF37E00620FFF763FF33E0CF
:4001C0000621002000F044FB1D4800F0D5FA2BE000F0E2F90738072826D8DFE800F0102525250C2508040720FFF74CFF1CE00820FFF748FF18E00920FFF744FF14E0062172
:40020000002000F025FB0F4800F0B6FA0CE000F0C3F9072805D00D2806D10020FFF732FF02E00A20FFF72EFF00F0DCF98442FBD000F0E0F9012000F099FB10BD240A0000BA
:40024000300A00003C0A000008B562B60B4800F07FFB00F0EFFA012000F088FB0021084600F0F6FA064800F087FA0021012000F0EFFA044800F080FAFEE700BF310100004A
:40028000480A00005C0A0000FEE700BFF0B40022174611E050F82760F3B226F0FF0608E001EB420511F812406D78A5550132013BDBB2002BF4D10137122FEBD9F0BC70475E
:4002C000064B1B78DBB203F00701054A11701B09013213704422034B1A707047CF0100496E5800407658004008B50A46002100F08AFB08BD38B54BF67F32244B1A8018223C
:4003000002331A70022203F27E231A7008224FF040231A70032103F5007319701C4B1B78DBB21C490B701C4B1A8041F25122023B1A80002419250CE0184B1B7803F001032C
:4003400043EA440404F003044FF4F07000F014FB013D0DB1032CEFD115B90320FFF794FF0F4B4FF480721A8007221A7000220D490A704820023108701A700222033B1A70AF
:40038000094A137843F00103137038BD8040004008010049A146004022420040254200400440004006400040A243004008B500F01FFB08BD38B572B6354A137843F00403D8
:4003C000137000240CE0334D630019194A0011462A44084691882858FFF786FF0134E4B2072CF0D900240BE02A49A3001819420088180822416B006BFFF7D8FF0134E4B20C
:40040000002CF1D024494FF09040FFF73FFF234A137843F0020313701032137843F0020313701F4C237843F040032370A2F58632513A137843F0100313700A2219491A48B7
:40044000FFF7B4FF082219491948FFF7AFFF082218491948FFF7AAFF082218491848FFF7A5FF184A137843F008031370164D61232B70FFF73FFF81232B700122134B1A7084
:40048000FFF71EFF0E2221461148FFF78FFF38BDE84600406C0A00004C00004803500140A0430040140100480051004020010048C25100402801004812510040300100485A
:4004C00022510040224300400048004004000840B043004008B500F05FFA03680C2B00D1FEE7FEE708B5104E104D16E029686B68AC68002204E051F8040B43F8040B043296
:40050000A242F8D1E868002203E0002143F8041B04328242F9D11035013E002EE6D100F041FAFFF791FEFEE701000000100B000008B5104A104B1A60104A136843F40073F5
:40054000136000230AE0032B03D80D4A52F8231000E00C490C4A42F8231001332F2BF2D90A4B1A780A4B1A70074A0A4B1A60FFF721FF08BD0004FA050CED00E014ED00E04F
:4005800000000000D50400000080FF1FBC760040C080FF1F08ED00E0014B1878000970470151004010B5044605E0084B186800F0E3F9A4F50044B4F5004FF6D8034B5868AD
:4005C00000FB04F000F0D8F910BD00BFCC80FF1F08B5034B1B7A00FB03F000F0CDF908BDCC80FF1F024B187800F00F00704700BF01510040024B187800F00F00704700BFAC
:400600008045004010B50B4C237803F09F032370237803F0F00323702378184340F0100020700120FFF7D4FF237803F0EF03237010BD00BFC051004038B505460E4C2378F5
:4006400043F020032370237803F0BF0323700020FFF7BEFF237803F0F003237023781D4345F0100525700120FFF7B2FF237803F0EF03237038BD00BFC051004070B5354B68
:400680001A7802F08002D2B21A7033490A7802F0F00242F00F020A7001310A7802F0F0020A7001310A7802F0F0020A701A7802F0DF021A701A7842F040021A704FF4CA7661
:4006C0000020FFF785FF234D2B7843F010032B700120FFF77DFF214B1C78E4B22B7803F0EF032B700020FFF773FF04F00804E4B22B7843F010032B700120FFF769FF2B785C
:4007000003F0EF032B7014B90A20FFF761FF013E0CB1002ED4D10F4A137803F0BF031370137803F08003DBB213700232137803F0F00313700132137803F0F00343F00F03DF
:4007400013700132137803F0F00343F00F03137070BD00BFC0510040C2510040C151004010B50446FFF78AFF2009FFF765FF04F00F00FFF761FF10BD38B50546007801249C
:4007800004E0FFF7EDFF285D0134E4B20028F8D138BD00BF10B50446FFF770FF2009FFF731FF04F00F00FFF72DFF10BD08B52820FFF7F8FE0320FFF725FF0520FFF7F2FE90
:4007C0000320FFF71FFF0F20FFF7ECFE0320FFF719FF0120FFF7E6FE0220FFF713FF0520FFF7E0FE0620FFF7D5FF0E20FFF7D2FF2C20FFF7CFFF0820FFF7CCFF0120FFF76F
:40080000C9FF0C20FFF7C6FF0320FFF7C3FF0520FFF7C8FE014800F06BF808BDA80A000008B50C20FFF7B6FF0122014B1A7008BD6281FF1F08B5054B5B7823B9FFF7B6FF80
:400840000122024B5A70FFF7EBFF08BD6281FF1F08B5032819D8DFE800F002070D1381F08000FFF797FF08BDA1F14000C0B2FFF791FF08BDA1F16C00C0B2FFF78BFF08BD59
:40088000A1F12C00C0B2FFF785FF08BD10B584B000238DF80E30092211E0144BA3FB0013DB081C4603EB83035900431ADBB2303304A9114401F80C3C2046013AD2B20928C6
:4008C000EBD80A4BA3FB0013DB0803EB83035900431ADBB2303304A9114401F80C3C01AB9818FFF749FF04B010BD00BFCDCCCCCC38B50546FFF7C2FE4020FFF74BFF002432
:4009000004E0285DFFF72CFF0134E4B23F2CF8D9FFF7B4FE8020FFF73DFF38BD014B1B681865704708ED00E04001C0B2014B1870704700BF04E400E01022014B1A6070476B
:4009400000E100E01022014B1A60704780E100E010B50446FFF7F6FF2046FFF7DFFF0720FFF7E2FFFFF7E8FF10BD00BF014B1870704700BF796500400230800803D000BF77
:4009800001380046FCD17047EFF3108072B6704780F31088704700BF014B1868704700BF3C81FF1F0E4B70B51E460E4C0025E41AA410A54204D056F8253098470135F8E7E0
:4009C00000F094F8084B094C1E46E41AA4100025A54204D056F8253098470135F8E770BDF80A0000F80A0000F80A0000000B000010B5431E0A44914204D011F8014B03F89D
:400A0000014FF8E710BD03460244934202D003F8011BFAE7704700000000000020202020000000005061736142616A6F7300000050617361416C746F7300000050617361D4
:400A400042616E646100000046696C74726F205061736142616A6F7300000000462E20436F7274653A20313030300000004F00400C00305100404000F051004010000000C3
:400A80000140001000140140000800400140000A004C01400002005001402000004500400C010048080000000101010101010101000A0A0404040000000E0A0E080800007D
:400AC000000E0A0C0A0A0000000E080C080E0000000E080E020E0000000E080E020E0000000404040004000043000000F8B500BFF8BC08BC9E4670474D00000031050000C9
:400B0000F8B500BFF8BC08BC9E46704729000000200B0000C880FF1F7800000028000000000000000000E02EC05D00001800000000366E01000000000000000000000000F4
:400B40000000000000000000000000000000000000000000E80A00000000000000000000000000000000000000000000000000000000000000000000000000000000000083
:400B80000000000000000000000000000000000000000000DC80FF1F00000000000000000000000000000000000000000000000000000000000000000000000000000000BB
:400BC00000000000000000000000000000000000000000000000000000000000000000000000000000000000000000000000000000000000000000000000000000000000F5
:400C000000000000000000000000000000000000000000000000000000000000000000000000000000000000000000000000000000000000000000000000000000000000B4
:400C40000000000000000000000000000000000000000000000000000000000000000000000000000000000000000000000000000000000000000000000000000000000074
:400C80000000000000000000000000000000000000000000000000000000000000000000000000000000000000000000000000000000000000000000000000000000000034
:020000040003F7
:0200000480007A
:40000000014F004004520040016500400307014005090140040A0140030B014001170140131801401319014002400140074101400842014009430140024501400246014055
:400040000348014002500140015101400A4B009001A0100211027901E602EA04EE0487089404A402A804AB2038203E1058045F011B208402E008EA449003920C9303970105
:40008000A809AA06B008B201B302B404B602B701B8AABB88BE55D804D904DB04DF010A801208180419021B48224830023208680294049D02A402A748AB40B502C208C402EB
:4000C000CC03EA403280CC1059025C0263806501A680D6C0D8C0128058089C029D03A680A740C410D64084029C029D02A740A808A901E640EA20EE205702D6048702A70255
:40010000AB40B502EA2010011C01000202020202000000000F0000FFF000F00000000000007F7F0000000000000B0B000000000000020200020000000000000000000000D3
:40014000000000000000000000000000000000000000000000000000000000000000000000000000000000000000000000000000000000000000000000000000000000007F
:40018000000000000000000000000000000000000000000000000000000000000000000000000000000000000000000000000000000000000000000000000000000000003F
:4001C00000000000000000000000000000000000000000000000000000000000000000000000000000000000000000000000000000000000000000000000000000000000FF
:4002000000000000000000000000000000000000000000000000000000000000000000000000000000000000000000000000000000000000000000000000000000000000BE
:0200000490006A
:0400000000004005B7
:0200000490105A
:04000000BC90ACAF55
:0200000490303A
:02000000799DE8
:0200000490402A
:4000000000000000000000000000000000000000000000000000000000000000000000000000000000000000000000000000000000000000000000000000000000000000C0
:400040000000000000000000000000000000000000000000000000000000000000000000000000000000000000000000000000000000000000000000000000000000000080
:400080000000000000000000000000000000000000000000000000000000000000000000000000000000000000000000000000000000000000000000000000000000000040
:4000C0000000000000000000000000000000000000000000000000000000000000000000000000000000000000000000000000000000000000000000000000000000000000
:0200000490501A
:0C00000000012E16106900012E1A8A065D
:00000001FF